{
  "_format": "hh-sol-artifact-1",
  "contractName": "Campaign",
  "sourceName": "contracts/Campaign.sol",
  "abi": [
    {
      "inputs": [
        {
          "internalType": "address",
          "name": "_tokenContract",
          "type": "address"
        },
        {
          "internalType": "address",
          "name": "_proposalContract",
          "type": "address"
        },
        {
          "internalType": "address[]",
          "name": "_beneficiaries",
          "type": "address[]"
        }
      ],
      "stateMutability": "nonpayable",
      "type": "constructor"
    },
    {
      "inputs": [],
      "name": "ReentrancyGuardReentrantCall",
      "type": "error"
    },
    {
      "anonymous": false,
      "inputs": [],
      "name": "CampaignClosed",
      "type": "event"
    },
    {
      "anonymous": false,
      "inputs": [
        {
          "indexed": true,
          "internalType": "address",
          "name": "donor",
          "type": "address"
        },
        {
          "indexed": false,
          "internalType": "uint256",
          "name": "amount",
          "type": "uint256"
        },
        {
          "indexed": false,
          "internalType": "uint256",
          "name": "tokenId",
          "type": "uint256"
        }
      ],
      "name": "DonationReceived",
      "type": "event"
    },
    {
      "anonymous": false,
      "inputs": [],
      "name": "FundsDistributed",
      "type": "event"
    },
    {
      "anonymous": false,
      "inputs": [
        {
          "indexed": true,
          "internalType": "address",
          "name": "beneficiary",
          "type": "address"
        },
        {
          "indexed": false,
          "internalType": "uint256",
          "name": "amount",
          "type": "uint256"
        }
      ],
      "name": "FundsWithdrawn",
      "type": "event"
    },
    {
      "inputs": [],
      "name": "distributeFunds",
      "outputs": [],
      "stateMutability": "nonpayable",
      "type": "function"
    },
    {
      "inputs": [],
      "name": "donate",
      "outputs": [],
      "stateMutability": "payable",
      "type": "function"
    },
    {
      "inputs": [],
      "name": "fundsDistributed",
      "outputs": [
        {
          "internalType": "bool",
          "name": "",
          "type": "bool"
        }
      ],
      "stateMutability": "view",
      "type": "function"
    },
    {
      "inputs": [
        {
          "internalType": "uint256",
          "name": "tokenId",
          "type": "uint256"
        }
      ],
      "name": "getDonationForToken",
      "outputs": [
        {
          "internalType": "uint256",
          "name": "",
          "type": "uint256"
        }
      ],
      "stateMutability": "view",
      "type": "function"
    },
    {
      "inputs": [],
      "name": "getDonationPercentages",
      "outputs": [
        {
          "internalType": "uint256[]",
          "name": "percentages",
          "type": "uint256[]"
        }
      ],
      "stateMutability": "view",
      "type": "function"
    },
    {
      "inputs": [],
      "name": "getTargetAmount",
      "outputs": [
        {
          "internalType": "uint256",
          "name": "",
          "type": "uint256"
        }
      ],
      "stateMutability": "view",
      "type": "function"
    },
    {
      "inputs": [
        {
          "internalType": "address",
          "name": "_owner",
          "type": "address"
        }
      ],
      "name": "getTokensByOwner",
      "outputs": [
        {
          "internalType": "uint256[]",
          "name": "",
          "type": "uint256[]"
        }
      ],
      "stateMutability": "view",
      "type": "function"
    },
    {
      "inputs": [],
      "name": "getTotalDonations",
      "outputs": [
        {
          "internalType": "uint256",
          "name": "",
          "type": "uint256"
        }
      ],
      "stateMutability": "view",
      "type": "function"
    },
    {
      "inputs": [],
      "name": "isActive",
      "outputs": [
        {
          "internalType": "bool",
          "name": "",
          "type": "bool"
        }
      ],
      "stateMutability": "view",
      "type": "function"
    },
    {
      "inputs": [
        {
          "internalType": "address",
          "name": "beneficiary",
          "type": "address"
        }
      ],
      "name": "isBeneficiary",
      "outputs": [
        {
          "internalType": "bool",
          "name": "",
          "type": "bool"
        }
      ],
      "stateMutability": "view",
      "type": "function"
    },
    {
      "inputs": [],
      "name": "isCampaignActive",
      "outputs": [
        {
          "internalType": "bool",
          "name": "",
          "type": "bool"
        }
      ],
      "stateMutability": "view",
      "type": "function"
    },
    {
      "inputs": [],
      "name": "isFundsDistributed",
      "outputs": [
        {
          "internalType": "bool",
          "name": "",
          "type": "bool"
        }
      ],
      "stateMutability": "view",
      "type": "function"
    },
    {
      "inputs": [],
      "name": "owner",
      "outputs": [
        {
          "internalType": "address",
          "name": "",
          "type": "address"
        }
      ],
      "stateMutability": "view",
      "type": "function"
    },
    {
      "inputs": [
        {
          "internalType": "address",
          "name": "",
          "type": "address"
        }
      ],
      "name": "pendingWithdrawals",
      "outputs": [
        {
          "internalType": "uint256",
          "name": "",
          "type": "uint256"
        }
      ],
      "stateMutability": "view",
      "type": "function"
    },
    {
      "inputs": [],
      "name": "proposalContract",
      "outputs": [
        {
          "internalType": "contract Proposal",
          "name": "",
          "type": "address"
        }
      ],
      "stateMutability": "view",
      "type": "function"
    },
    {
      "inputs": [
        {
          "internalType": "uint256",
          "name": "_newTarget",
          "type": "uint256"
        }
      ],
      "name": "setTargetAmount",
      "outputs": [],
      "stateMutability": "nonpayable",
      "type": "function"
    },
    {
      "inputs": [],
      "name": "stopCampaign",
      "outputs": [],
      "stateMutability": "nonpayable",
      "type": "function"
    },
    {
      "inputs": [],
      "name": "targetAmount",
      "outputs": [
        {
          "internalType": "uint256",
          "name": "",
          "type": "uint256"
        }
      ],
      "stateMutability": "view",
      "type": "function"
    },
    {
      "inputs": [],
      "name": "tokenContract",
      "outputs": [
        {
          "internalType": "contract DonationToken",
          "name": "",
          "type": "address"
        }
      ],
      "stateMutability": "view",
      "type": "function"
    },
    {
      "inputs": [],
      "name": "totalDonations",
      "outputs": [
        {
          "internalType": "uint256",
          "name": "",
          "type": "uint256"
        }
      ],
      "stateMutability": "view",
      "type": "function"
    },
    {
      "inputs": [],
      "name": "withdrawFunds",
      "outputs": [],
      "stateMutability": "nonpayable",
      "type": "function"
    }
  ],
  "bytecode": "0x60806040526006805461ffff191660011790553480156200001f57600080fd5b5060405162001bc938038062001bc9833981016040819052620000429162000385565b60016000556001600160a01b038316620000a35760405162461bcd60e51b815260206004820152601e60248201527f496e76616c696420746f6b656e20636f6e74726163742061646472657373000060448201526064015b60405180910390fd5b6001600160a01b038216620001055760405162461bcd60e51b815260206004820152602160248201527f496e76616c69642070726f706f73616c20636f6e7472616374206164647265736044820152607360f81b60648201526084016200009a565b8051600314620001645760405162461bcd60e51b8152602060048201526024808201527f4d7573742070726f766964652065786163746c7920332062656e6566696369616044820152637269657360e01b60648201526084016200009a565b600180546001600160a01b038086166001600160a01b0319928316179092556002805492851692821683179055600380549091163317905581516307eecaf5908390600090620001b857620001b86200047f565b60200260200101516040518263ffffffff1660e01b8152600401620001ec91906001600160a01b0391909116815260200190565b600060405180830381600087803b1580156200020757600080fd5b505af11580156200021c573d6000803e3d6000fd5b505060025483516001600160a01b0390911692506307eecaf59150839060019081106200024d576200024d6200047f565b60200260200101516040518263ffffffff1660e01b81526004016200028191906001600160a01b0391909116815260200190565b600060405180830381600087803b1580156200029c57600080fd5b505af1158015620002b1573d6000803e3d6000fd5b50506002805484516001600160a01b0390911693506307eecaf592508491908110620002e157620002e16200047f565b60200260200101516040518263ffffffff1660e01b81526004016200031591906001600160a01b0391909116815260200190565b600060405180830381600087803b1580156200033057600080fd5b505af115801562000345573d6000803e3d6000fd5b5050505050505062000495565b80516001600160a01b03811681146200036a57600080fd5b919050565b634e487b7160e01b600052604160045260246000fd5b6000806000606084860312156200039b57600080fd5b620003a68462000352565b92506020620003b781860162000352565b60408601519093506001600160401b0380821115620003d557600080fd5b818701915087601f830112620003ea57600080fd5b815181811115620003ff57620003ff6200036f565b8060051b604051601f19603f830116810181811085821117156200042757620004276200036f565b60405291825284820192508381018501918a8311156200044657600080fd5b938501935b828510156200046f576200045f8562000352565b845293850193928501926200044b565b8096505050505050509250925092565b634e487b7160e01b600052603260045260246000fd5b61172480620004a56000396000f3fe60806040526004361061016a5760003560e01c8063777c658f116100cb5780639d19b2261161007f578063ed88c68e11610059578063ed88c68e146103c9578063f387bcac146103d1578063f3f43703146103e957600080fd5b80639d19b22614610376578063de2ed89314610396578063e7937bd3146103ac57600080fd5b80638da5cb5b116100b05780638da5cb5b1461031e57806391ac4b881461034b578063953b8fb81461036057600080fd5b8063777c658f146102df57806380d2a693146102fe57600080fd5b806340398d67116101225780634d55ed9b116101075780634d55ed9b1461027357806355a373d6146102935780636f95b3f3146102c057600080fd5b806340398d671461023157806340eeeac31461025e57600080fd5b806324600fc31161015357806324600fc3146101b55780633a6a4d2e146101ca5780633aef3900146101df57600080fd5b806316f1bc221461016f57806322f3e2d414610186575b600080fd5b34801561017b57600080fd5b50610184610416565b005b34801561019257600080fd5b506006546101a09060ff1681565b60405190151581526020015b60405180910390f35b3480156101c157600080fd5b5061018461054f565b3480156101d657600080fd5b5061018461079a565b3480156101eb57600080fd5b5060025461020c9073ffffffffffffffffffffffffffffffffffffffff1681565b60405173ffffffffffffffffffffffffffffffffffffffff90911681526020016101ac565b34801561023d57600080fd5b5061025161024c366004611469565b610ca1565b6040516101ac919061148d565b34801561026a57600080fd5b50610251610d5e565b34801561027f57600080fd5b5061018461028e3660046114d1565b610ef3565b34801561029f57600080fd5b5060015461020c9073ffffffffffffffffffffffffffffffffffffffff1681565b3480156102cc57600080fd5b506006546101a090610100900460ff1681565b3480156102eb57600080fd5b506004545b6040519081526020016101ac565b34801561030a57600080fd5b506102f06103193660046114d1565b61104c565b34801561032a57600080fd5b5060035461020c9073ffffffffffffffffffffffffffffffffffffffff1681565b34801561035757600080fd5b506005546102f0565b34801561036c57600080fd5b506102f060055481565b34801561038257600080fd5b506101a0610391366004611469565b6110e0565b3480156103a257600080fd5b506102f060045481565b3480156103b857600080fd5b50600654610100900460ff166101a0565b610184611246565b3480156103dd57600080fd5b5060065460ff166101a0565b3480156103f557600080fd5b506102f0610404366004611469565b60076020526000908152604090205481565b60035473ffffffffffffffffffffffffffffffffffffffff1633146104a85760405162461bcd60e51b815260206004820152602560248201527f4f6e6c7920746865206f776e65722063616e2063616c6c20746869732066756e60448201527f6374696f6e00000000000000000000000000000000000000000000000000000060648201526084015b60405180910390fd5b60055460045410156104fc5760405162461bcd60e51b815260206004820152601d60248201527f54617267657420616d6f756e74206e6f74207265616368656420796574000000604482015260640161049f565b600680547fffffffffffffffffffffffffffffffffffffffffffffffffffffffffffffff001690556040517fb49a509a88f868a6f6fce6bfa9c1e1a7faf4e371b9ee245a8695b03ac90680c490600090a1565b610557611401565b600654610100900460ff166105ae5760405162461bcd60e51b815260206004820152601f60248201527f46756e64732068617665206e6f74206265656e20646973747269627574656400604482015260640161049f565b6105b7336110e0565b6106035760405162461bcd60e51b815260206004820152601960248201527f596f7520617265206e6f7420612062656e656669636961727900000000000000604482015260640161049f565b33600090815260076020526040902054806106605760405162461bcd60e51b815260206004820152601460248201527f4e6f2066756e647320746f207769746864726177000000000000000000000000604482015260640161049f565b804710156106b05760405162461bcd60e51b815260206004820152601d60248201527f496e73756666696369656e7420636f6e74726163742062616c616e6365000000604482015260640161049f565b336000818152600760205260408082208290555190919083908381818185875af1925050503d8060008114610701576040519150601f19603f3d011682016040523d82523d6000602084013e610706565b606091505b50509050806107575760405162461bcd60e51b815260206004820152601160248201527f5769746864726177616c206661696c6564000000000000000000000000000000604482015260640161049f565b60405182815233907feaff4b37086828766ad3268786972c0cd24259d4c87a80f9d3963a3c3d999b0d9060200160405180910390a250506107986001600055565b565b60035473ffffffffffffffffffffffffffffffffffffffff1633146108275760405162461bcd60e51b815260206004820152602560248201527f4f6e6c7920746865206f776e65722063616e2063616c6c20746869732066756e60448201527f6374696f6e000000000000000000000000000000000000000000000000000000606482015260840161049f565b61082f611401565b60065460ff16156108a85760405162461bcd60e51b815260206004820152603260248201527f43616d706169676e206d7573742062652073746f70706564206265666f72652060448201527f646973747269627574696e672066756e64730000000000000000000000000000606482015260840161049f565b600654610100900460ff16156109265760405162461bcd60e51b815260206004820152602360248201527f46756e6473206861766520616c7265616479206265656e20646973747269627560448201527f7465640000000000000000000000000000000000000000000000000000000000606482015260840161049f565b600254604080517f9a0e7d66000000000000000000000000000000000000000000000000000000008152905160009273ffffffffffffffffffffffffffffffffffffffff1691639a0e7d669160048083019260209291908290030181865afa158015610996573d6000803e3d6000fd5b505050506040513d601f19601f820116820180604052508101906109ba91906114ea565b905060008111610a0c5760405162461bcd60e51b815260206004820152601360248201527f4e6f2076616c696420766f746573206361737400000000000000000000000000604482015260640161049f565b60005b600260009054906101000a900473ffffffffffffffffffffffffffffffffffffffff1673ffffffffffffffffffffffffffffffffffffffff1663c08cc02d6040518163ffffffff1660e01b8152600401602060405180830381865afa158015610a7c573d6000803e3d6000fd5b505050506040513d601f19601f82011682018060405250810190610aa091906114ea565b811015610c40576002546040517fad7e6dec0000000000000000000000000000000000000000000000000000000081526004810183905260009173ffffffffffffffffffffffffffffffffffffffff169063ad7e6dec90602401602060405180830381865afa158015610b17573d6000803e3d6000fd5b505050506040513d601f19601f82011682018060405250810190610b3b91906114ea565b90506000606482600454610b4f9190611532565b610b599190611549565b6002546040517fa656985d0000000000000000000000000000000000000000000000000000000081526004810186905291925060009173ffffffffffffffffffffffffffffffffffffffff9091169063a656985d90602401602060405180830381865afa158015610bce573d6000803e3d6000fd5b505050506040513d601f19601f82011682018060405250810190610bf29190611584565b73ffffffffffffffffffffffffffffffffffffffff8116600090815260076020526040812080549293508492909190610c2c9084906115a1565b909155505060019093019250610a0f915050565b50600680547fffffffffffffffffffffffffffffffffffffffffffffffffffffffffffff00ff166101001790556040517f667972ea55cbca5734628e5f213d3497da4f140dd560ff815c8d0c9ee618ff8490600090a1506107986001600055565b6001546040517f40398d6700000000000000000000000000000000000000000000000000000000815273ffffffffffffffffffffffffffffffffffffffff838116600483015260609216906340398d6790602401600060405180830381865afa158015610d12573d6000803e3d6000fd5b505050506040513d6000823e601f3d9081017fffffffffffffffffffffffffffffffffffffffffffffffffffffffffffffffe0168201604052610d5891908101906115e3565b92915050565b60606000600260009054906101000a900473ffffffffffffffffffffffffffffffffffffffff1673ffffffffffffffffffffffffffffffffffffffff16639a0e7d666040518163ffffffff1660e01b8152600401602060405180830381865afa158015610dcf573d6000803e3d6000fd5b505050506040513d601f19601f82011682018060405250810190610df391906114ea565b60408051600380825260808201909252919250600091906020820160608036833701905050905081600003610e285792915050565b60005b6003811015610eec576002546040517fad7e6dec0000000000000000000000000000000000000000000000000000000081526004810183905273ffffffffffffffffffffffffffffffffffffffff9091169063ad7e6dec90602401602060405180830381865afa158015610ea3573d6000803e3d6000fd5b505050506040513d601f19601f82011682018060405250810190610ec791906114ea565b828281518110610ed957610ed96116bf565b6020908102919091010152600101610e2b565b5092915050565b60035473ffffffffffffffffffffffffffffffffffffffff163314610f805760405162461bcd60e51b815260206004820152602560248201527f4f6e6c7920746865206f776e65722063616e2063616c6c20746869732066756e60448201527f6374696f6e000000000000000000000000000000000000000000000000000000606482015260840161049f565b60008111610fd05760405162461bcd60e51b815260206004820181905260248201527f546172676574206d7573742062652067726561746572207468616e207a65726f604482015260640161049f565b60045481116110475760405162461bcd60e51b815260206004820152602960248201527f4e657720746172676574206d7573742062652067726561746572207468616e2060448201527f646f6e6174696f6e730000000000000000000000000000000000000000000000606482015260840161049f565b600555565b6001546040517f0c79186c0000000000000000000000000000000000000000000000000000000081526004810183905260009173ffffffffffffffffffffffffffffffffffffffff1690630c79186c90602401602060405180830381865afa1580156110bc573d6000803e3d6000fd5b505050506040513d601f19601f82011682018060405250810190610d5891906114ea565b6000805b600260009054906101000a900473ffffffffffffffffffffffffffffffffffffffff1673ffffffffffffffffffffffffffffffffffffffff1663c08cc02d6040518163ffffffff1660e01b8152600401602060405180830381865afa158015611151573d6000803e3d6000fd5b505050506040513d601f19601f8201168201806040525081019061117591906114ea565b81101561123d576002546040517fa656985d0000000000000000000000000000000000000000000000000000000081526004810183905273ffffffffffffffffffffffffffffffffffffffff85811692169063a656985d90602401602060405180830381865afa1580156111ed573d6000803e3d6000fd5b505050506040513d601f19601f820116820180604052508101906112119190611584565b73ffffffffffffffffffffffffffffffffffffffff16036112355750600192915050565b6001016110e4565b50600092915050565b60065460ff166112985760405162461bcd60e51b815260206004820152601660248201527f43616d706169676e206973206e6f742061637469766500000000000000000000604482015260640161049f565b6000341161130e5760405162461bcd60e51b815260206004820152602960248201527f446f6e6174696f6e20616d6f756e74206d75737420626520677265617465722060448201527f7468616e207a65726f0000000000000000000000000000000000000000000000606482015260840161049f565b346004600082825461132091906115a1565b90915550506001546040517fe74a84ea00000000000000000000000000000000000000000000000000000000815233600482015234602482015260009173ffffffffffffffffffffffffffffffffffffffff169063e74a84ea906044016020604051808303816000875af115801561139c573d6000803e3d6000fd5b505050506040513d601f19601f820116820180604052508101906113c091906114ea565b604080513481526020810183905291925033917f4b0304ab2f313234b1cea012339c8f8c3bf2c8bb357d81a579cfdb35d2e3d030910160405180910390a250565b60026000540361143d576040517f3ee5aeb500000000000000000000000000000000000000000000000000000000815260040160405180910390fd5b6002600055565b73ffffffffffffffffffffffffffffffffffffffff8116811461146657600080fd5b50565b60006020828403121561147b57600080fd5b813561148681611444565b9392505050565b6020808252825182820181905260009190848201906040850190845b818110156114c5578351835292840192918401916001016114a9565b50909695505050505050565b6000602082840312156114e357600080fd5b5035919050565b6000602082840312156114fc57600080fd5b5051919050565b7f4e487b7100000000000000000000000000000000000000000000000000000000600052601160045260246000fd5b8082028115828204841417610d5857610d58611503565b60008261157f577f4e487b7100000000000000000000000000000000000000000000000000000000600052601260045260246000fd5b500490565b60006020828403121561159657600080fd5b815161148681611444565b80820180821115610d5857610d58611503565b7f4e487b7100000000000000000000000000000000000000000000000000000000600052604160045260246000fd5b600060208083850312156115f657600080fd5b825167ffffffffffffffff8082111561160e57600080fd5b818501915085601f83011261162257600080fd5b815181811115611634576116346115b4565b8060051b6040517fffffffffffffffffffffffffffffffffffffffffffffffffffffffffffffffe0603f83011681018181108582111715611677576116776115b4565b60405291825284820192508381018501918883111561169557600080fd5b938501935b828510156116b35784518452938501939285019261169a565b98975050505050505050565b7f4e487b7100000000000000000000000000000000000000000000000000000000600052603260045260246000fdfea26469706673582212205d865942cd305d39621422daa84f4e20d5a9f29b76b1265cb81bf1f19e5f83ca64736f6c63430008180033",
  "linkReferences": {},
  "deployedLinkReferences": {}
}