{
  "_format": "hh-sol-artifact-1",
  "contractName": "Campaign",
  "sourceName": "contracts/Campaign.sol",
  "abi": [
    {
      "inputs": [
        {
          "internalType": "address",
          "name": "_tokenContract",
          "type": "address"
        },
        {
          "internalType": "address",
          "name": "_proposalContract",
          "type": "address"
        }
      ],
      "stateMutability": "nonpayable",
      "type": "constructor"
    },
    {
      "inputs": [
        {
          "internalType": "uint256",
          "name": "_tokenId",
          "type": "uint256"
        }
      ],
      "name": "buyToken",
      "outputs": [],
      "stateMutability": "payable",
      "type": "function"
    },
    {
      "inputs": [],
      "name": "donate",
      "outputs": [],
      "stateMutability": "payable",
      "type": "function"
    },
    {
      "inputs": [],
      "name": "getDonationPercentages",
      "outputs": [
        {
          "internalType": "uint256[]",
          "name": "percentages",
          "type": "uint256[]"
        }
      ],
      "stateMutability": "view",
      "type": "function"
    },
    {
      "inputs": [],
      "name": "nextTokenId",
      "outputs": [
        {
          "internalType": "uint256",
          "name": "",
          "type": "uint256"
        }
      ],
      "stateMutability": "view",
      "type": "function"
    },
    {
      "inputs": [],
      "name": "owner",
      "outputs": [
        {
          "internalType": "address",
          "name": "",
          "type": "address"
        }
      ],
      "stateMutability": "view",
      "type": "function"
    },
    {
      "inputs": [],
      "name": "proposalContract",
      "outputs": [
        {
          "internalType": "contract Proposal",
          "name": "",
          "type": "address"
        }
      ],
      "stateMutability": "view",
      "type": "function"
    },
    {
      "inputs": [
        {
          "internalType": "uint256",
          "name": "_targetAmount",
          "type": "uint256"
        }
      ],
      "name": "setTargetAmount",
      "outputs": [],
      "stateMutability": "nonpayable",
      "type": "function"
    },
    {
      "inputs": [],
      "name": "targetAmount",
      "outputs": [
        {
          "internalType": "uint256",
          "name": "",
          "type": "uint256"
        }
      ],
      "stateMutability": "view",
      "type": "function"
    },
    {
      "inputs": [],
      "name": "tokenContract",
      "outputs": [
        {
          "internalType": "contract DonationToken",
          "name": "",
          "type": "address"
        }
      ],
      "stateMutability": "view",
      "type": "function"
    },
    {
      "inputs": [],
      "name": "totalDonations",
      "outputs": [
        {
          "internalType": "uint256",
          "name": "",
          "type": "uint256"
        }
      ],
      "stateMutability": "view",
      "type": "function"
    },
    {
      "inputs": [],
      "name": "viewAllDonationTokens",
      "outputs": [
        {
          "components": [
            {
              "internalType": "uint256",
              "name": "id",
              "type": "uint256"
            },
            {
              "internalType": "uint256",
              "name": "amount",
              "type": "uint256"
            },
            {
              "internalType": "address",
              "name": "donor",
              "type": "address"
            }
          ],
          "internalType": "struct DonationToken.DonationAsset[]",
          "name": "",
          "type": "tuple[]"
        }
      ],
      "stateMutability": "view",
      "type": "function"
    },
    {
      "inputs": [
        {
          "internalType": "uint256",
          "name": "_tokenId",
          "type": "uint256"
        }
      ],
      "name": "viewDonationToken",
      "outputs": [
        {
          "internalType": "uint256",
          "name": "",
          "type": "uint256"
        },
        {
          "internalType": "uint256",
          "name": "",
          "type": "uint256"
        },
        {
          "internalType": "address",
          "name": "",
          "type": "address"
        }
      ],
      "stateMutability": "view",
      "type": "function"
    }
  ],
  "bytecode": "0x60806040526001805534801561001457600080fd5b50604051611048380380611048833981016040819052610033916101a9565b600080546001600160a01b038085166001600160a01b031992831617835560048054831633178155600580549286169290931682179092556040805163180fd87f60e01b81529051919363180fd87f9382810193919282900301818387803b15801561009e57600080fd5b505af11580156100b2573d6000803e3d6000fd5b50505050600560009054906101000a90046001600160a01b03166001600160a01b031663180fd87f6040518163ffffffff1660e01b8152600401600060405180830381600087803b15801561010657600080fd5b505af115801561011a573d6000803e3d6000fd5b50505050600560009054906101000a90046001600160a01b03166001600160a01b031663180fd87f6040518163ffffffff1660e01b8152600401600060405180830381600087803b15801561016e57600080fd5b505af1158015610182573d6000803e3d6000fd5b5050505050506101dc565b80516001600160a01b03811681146101a457600080fd5b919050565b600080604083850312156101bc57600080fd5b6101c58361018d565b91506101d36020840161018d565b90509250929050565b610e5d806101eb6000396000f3fe6080604052600436106100c75760003560e01c806375794a3c11610074578063de2ed8931161004e578063de2ed8931461025f578063ed88c68e14610275578063f6f9637f1461027d57600080fd5b806375794a3c146101f85780638da5cb5b1461021c578063953b8fb81461024957600080fd5b806340eeeac3116100a557806340eeeac3146101895780634d55ed9b146101ab57806355a373d6146101cb57600080fd5b80632d296bf1146100cc5780633aef3900146100e15780633d397ef314610138575b600080fd5b6100df6100da366004610a4e565b61029f565b005b3480156100ed57600080fd5b5060055461010e9073ffffffffffffffffffffffffffffffffffffffff1681565b60405173ffffffffffffffffffffffffffffffffffffffff90911681526020015b60405180910390f35b34801561014457600080fd5b50610158610153366004610a4e565b610510565b60408051938452602084019290925273ffffffffffffffffffffffffffffffffffffffff169082015260600161012f565b34801561019557600080fd5b5061019e6105b5565b60405161012f9190610a67565b3480156101b757600080fd5b506100df6101c6366004610a4e565b61079a565b3480156101d757600080fd5b5060005461010e9073ffffffffffffffffffffffffffffffffffffffff1681565b34801561020457600080fd5b5061020e60015481565b60405190815260200161012f565b34801561022857600080fd5b5060045461010e9073ffffffffffffffffffffffffffffffffffffffff1681565b34801561025557600080fd5b5061020e60035481565b34801561026b57600080fd5b5061020e60025481565b6100df610846565b34801561028957600080fd5b50610292610994565b60405161012f9190610aab565b600080546040517f8334d195000000000000000000000000000000000000000000000000000000008152600481018490528291829173ffffffffffffffffffffffffffffffffffffffff90911690638334d19590602401606060405180830381865afa158015610313573d6000803e3d6000fd5b505050506040513d601f19601f820116820180604052508101906103379190610b43565b925092509250826000036103d2576040517f08c379a000000000000000000000000000000000000000000000000000000000815260206004820152602160248201527f546f6b656e2077697468207468697320494420646f6573206e6f74206578697360448201527f740000000000000000000000000000000000000000000000000000000000000060648201526084015b60405180910390fd5b8134101561043c576040517f08c379a000000000000000000000000000000000000000000000000000000000815260206004820152601260248201527f496e73756666696369656e742066756e6473000000000000000000000000000060448201526064016103c9565b6000546040517f1072cbea0000000000000000000000000000000000000000000000000000000081523360048201526024810186905273ffffffffffffffffffffffffffffffffffffffff90911690631072cbea90604401600060405180830381600087803b1580156104ae57600080fd5b505af11580156104c2573d6000803e3d6000fd5b505060405173ffffffffffffffffffffffffffffffffffffffff841692503480156108fc029250906000818181858888f19350505050158015610509573d6000803e3d6000fd5b5050505050565b600080546040517f8334d195000000000000000000000000000000000000000000000000000000008152600481018490528291829173ffffffffffffffffffffffffffffffffffffffff90911690638334d19590602401606060405180830381865afa158015610584573d6000803e3d6000fd5b505050506040513d601f19601f820116820180604052508101906105a89190610b43565b9250925092509193909250565b6060600060015b60038111610675576005546040517f50e706fb0000000000000000000000000000000000000000000000000000000081526004810183905273ffffffffffffffffffffffffffffffffffffffff909116906350e706fb90602401602060405180830381865afa158015610633573d6000803e3d6000fd5b505050506040513d601f19601f820116820180604052508101906106579190610b78565b6106619083610bc0565b91508061066d81610bd9565b9150506105bc565b506040805160038082526080820190925260009160208201606080368337019050509050816000036106a75792915050565b60015b60038111610793576005546040517f50e706fb00000000000000000000000000000000000000000000000000000000815260048101839052849173ffffffffffffffffffffffffffffffffffffffff16906350e706fb90602401602060405180830381865afa158015610721573d6000803e3d6000fd5b505050506040513d601f19601f820116820180604052508101906107459190610b78565b610750906064610c40565b61075a9190610c57565b82610766600184610c92565b8151811061077657610776610ca5565b60209081029190910101528061078b81610bd9565b9150506106aa565b5092915050565b60045473ffffffffffffffffffffffffffffffffffffffff163314610841576040517f08c379a000000000000000000000000000000000000000000000000000000000815260206004820152602560248201527f4f6e6c7920746865206f776e65722063616e2063616c6c20746869732066756e60448201527f6374696f6e00000000000000000000000000000000000000000000000000000060648201526084016103c9565b600355565b600034116108d6576040517f08c379a000000000000000000000000000000000000000000000000000000000815260206004820152602960248201527f446f6e6174696f6e20616d6f756e74206d75737420626520677265617465722060448201527f7468616e207a65726f000000000000000000000000000000000000000000000060648201526084016103c9565b34600260008282546108e89190610bc0565b90915550506000546001546040517fa4093718000000000000000000000000000000000000000000000000000000008152600481019190915234602482015273ffffffffffffffffffffffffffffffffffffffff9091169063a409371890604401600060405180830381600087803b15801561096357600080fd5b505af1158015610977573d6000803e3d6000fd5b50505050600180600082825461098d9190610bc0565b9091555050565b60008054604080517f02cfba81000000000000000000000000000000000000000000000000000000008152905160609373ffffffffffffffffffffffffffffffffffffffff909316926302cfba8192600480820193918290030181865afa158015610a03573d6000803e3d6000fd5b505050506040513d6000823e601f3d9081017fffffffffffffffffffffffffffffffffffffffffffffffffffffffffffffffe0168201604052610a499190810190610d4c565b905090565b600060208284031215610a6057600080fd5b5035919050565b6020808252825182820181905260009190848201906040850190845b81811015610a9f57835183529284019291840191600101610a83565b50909695505050505050565b602080825282518282018190526000919060409081850190868401855b82811015610b0d57815180518552868101518786015285015173ffffffffffffffffffffffffffffffffffffffff168585015260609093019290850190600101610ac8565b5091979650505050505050565b805173ffffffffffffffffffffffffffffffffffffffff81168114610b3e57600080fd5b919050565b600080600060608486031215610b5857600080fd5b8351925060208401519150610b6f60408501610b1a565b90509250925092565b600060208284031215610b8a57600080fd5b5051919050565b7f4e487b7100000000000000000000000000000000000000000000000000000000600052601160045260246000fd5b80820180821115610bd357610bd3610b91565b92915050565b60007fffffffffffffffffffffffffffffffffffffffffffffffffffffffffffffffff8203610c0a57610c0a610b91565b5060010190565b7f4e487b7100000000000000000000000000000000000000000000000000000000600052604160045260246000fd5b8082028115828204841417610bd357610bd3610b91565b600082610c8d577f4e487b7100000000000000000000000000000000000000000000000000000000600052601260045260246000fd5b500490565b81810381811115610bd357610bd3610b91565b7f4e487b7100000000000000000000000000000000000000000000000000000000600052603260045260246000fd5b6040516060810167ffffffffffffffff81118282101715610cf757610cf7610c11565b60405290565b604051601f82017fffffffffffffffffffffffffffffffffffffffffffffffffffffffffffffffe016810167ffffffffffffffff81118282101715610d4457610d44610c11565b604052919050565b60006020808385031215610d5f57600080fd5b825167ffffffffffffffff80821115610d7757600080fd5b818501915085601f830112610d8b57600080fd5b815181811115610d9d57610d9d610c11565b610dab848260051b01610cfd565b81815284810192506060918202840185019188831115610dca57600080fd5b938501935b82851015610e1b5780858a031215610de75760008081fd5b610def610cd4565b8551815286860151878201526040610e08818801610b1a565b9082015284529384019392850192610dcf565b5097965050505050505056fea2646970667358221220a8283285487a758655e42cafedae52305b66263bbc36fe8142ecb7d699cf715864736f6c63430008180033",
  "linkReferences": {},
  "deployedLinkReferences": {}
}