{
  "_format": "hh-sol-artifact-1",
  "contractName": "DonationToken",
  "sourceName": "contracts/DonationToken.sol",
  "abi": [
    {
      "inputs": [],
      "stateMutability": "nonpayable",
      "type": "constructor"
    },
    {
      "inputs": [
        {
          "internalType": "address",
          "name": "sender",
          "type": "address"
        },
        {
          "internalType": "uint256",
          "name": "tokenId",
          "type": "uint256"
        },
        {
          "internalType": "address",
          "name": "owner",
          "type": "address"
        }
      ],
      "name": "ERC721IncorrectOwner",
      "type": "error"
    },
    {
      "inputs": [
        {
          "internalType": "address",
          "name": "operator",
          "type": "address"
        },
        {
          "internalType": "uint256",
          "name": "tokenId",
          "type": "uint256"
        }
      ],
      "name": "ERC721InsufficientApproval",
      "type": "error"
    },
    {
      "inputs": [
        {
          "internalType": "address",
          "name": "approver",
          "type": "address"
        }
      ],
      "name": "ERC721InvalidApprover",
      "type": "error"
    },
    {
      "inputs": [
        {
          "internalType": "address",
          "name": "operator",
          "type": "address"
        }
      ],
      "name": "ERC721InvalidOperator",
      "type": "error"
    },
    {
      "inputs": [
        {
          "internalType": "address",
          "name": "owner",
          "type": "address"
        }
      ],
      "name": "ERC721InvalidOwner",
      "type": "error"
    },
    {
      "inputs": [
        {
          "internalType": "address",
          "name": "receiver",
          "type": "address"
        }
      ],
      "name": "ERC721InvalidReceiver",
      "type": "error"
    },
    {
      "inputs": [
        {
          "internalType": "address",
          "name": "sender",
          "type": "address"
        }
      ],
      "name": "ERC721InvalidSender",
      "type": "error"
    },
    {
      "inputs": [
        {
          "internalType": "uint256",
          "name": "tokenId",
          "type": "uint256"
        }
      ],
      "name": "ERC721NonexistentToken",
      "type": "error"
    },
    {
      "inputs": [
        {
          "internalType": "address",
          "name": "owner",
          "type": "address"
        }
      ],
      "name": "OwnableInvalidOwner",
      "type": "error"
    },
    {
      "inputs": [
        {
          "internalType": "address",
          "name": "account",
          "type": "address"
        }
      ],
      "name": "OwnableUnauthorizedAccount",
      "type": "error"
    },
    {
      "anonymous": false,
      "inputs": [
        {
          "indexed": true,
          "internalType": "address",
          "name": "owner",
          "type": "address"
        },
        {
          "indexed": true,
          "internalType": "address",
          "name": "approved",
          "type": "address"
        },
        {
          "indexed": true,
          "internalType": "uint256",
          "name": "tokenId",
          "type": "uint256"
        }
      ],
      "name": "Approval",
      "type": "event"
    },
    {
      "anonymous": false,
      "inputs": [
        {
          "indexed": true,
          "internalType": "address",
          "name": "owner",
          "type": "address"
        },
        {
          "indexed": true,
          "internalType": "address",
          "name": "operator",
          "type": "address"
        },
        {
          "indexed": false,
          "internalType": "bool",
          "name": "approved",
          "type": "bool"
        }
      ],
      "name": "ApprovalForAll",
      "type": "event"
    },
    {
      "anonymous": false,
      "inputs": [
        {
          "indexed": true,
          "internalType": "address",
          "name": "previousOwner",
          "type": "address"
        },
        {
          "indexed": true,
          "internalType": "address",
          "name": "newOwner",
          "type": "address"
        }
      ],
      "name": "OwnershipTransferred",
      "type": "event"
    },
    {
      "anonymous": false,
      "inputs": [
        {
          "indexed": true,
          "internalType": "address",
          "name": "to",
          "type": "address"
        },
        {
          "indexed": false,
          "internalType": "uint256",
          "name": "tokenId",
          "type": "uint256"
        },
        {
          "indexed": false,
          "internalType": "uint256",
          "name": "amount",
          "type": "uint256"
        }
      ],
      "name": "TokenIssued",
      "type": "event"
    },
    {
      "anonymous": false,
      "inputs": [
        {
          "indexed": true,
          "internalType": "address",
          "name": "from",
          "type": "address"
        },
        {
          "indexed": true,
          "internalType": "address",
          "name": "to",
          "type": "address"
        },
        {
          "indexed": true,
          "internalType": "uint256",
          "name": "tokenId",
          "type": "uint256"
        }
      ],
      "name": "Transfer",
      "type": "event"
    },
    {
      "inputs": [
        {
          "internalType": "address",
          "name": "to",
          "type": "address"
        },
        {
          "internalType": "uint256",
          "name": "tokenId",
          "type": "uint256"
        }
      ],
      "name": "approve",
      "outputs": [],
      "stateMutability": "nonpayable",
      "type": "function"
    },
    {
      "inputs": [
        {
          "internalType": "address",
          "name": "owner",
          "type": "address"
        }
      ],
      "name": "balanceOf",
      "outputs": [
        {
          "internalType": "uint256",
          "name": "",
          "type": "uint256"
        }
      ],
      "stateMutability": "view",
      "type": "function"
    },
    {
      "inputs": [
        {
          "internalType": "address",
          "name": "_ownerToken",
          "type": "address"
        },
        {
          "internalType": "uint256",
          "name": "tokenId",
          "type": "uint256"
        }
      ],
      "name": "burn",
      "outputs": [],
      "stateMutability": "nonpayable",
      "type": "function"
    },
    {
      "inputs": [
        {
          "internalType": "uint256",
          "name": "",
          "type": "uint256"
        }
      ],
      "name": "donationAmounts",
      "outputs": [
        {
          "internalType": "uint256",
          "name": "",
          "type": "uint256"
        }
      ],
      "stateMutability": "view",
      "type": "function"
    },
    {
      "inputs": [
        {
          "internalType": "uint256",
          "name": "tokenId",
          "type": "uint256"
        }
      ],
      "name": "getApproved",
      "outputs": [
        {
          "internalType": "address",
          "name": "",
          "type": "address"
        }
      ],
      "stateMutability": "view",
      "type": "function"
    },
    {
      "inputs": [
        {
          "internalType": "uint256",
          "name": "tokenId",
          "type": "uint256"
        }
      ],
      "name": "getDonationAmount",
      "outputs": [
        {
          "internalType": "uint256",
          "name": "",
          "type": "uint256"
        }
      ],
      "stateMutability": "view",
      "type": "function"
    },
    {
      "inputs": [],
      "name": "getNextTokenId",
      "outputs": [
        {
          "internalType": "uint256",
          "name": "",
          "type": "uint256"
        }
      ],
      "stateMutability": "view",
      "type": "function"
    },
    {
      "inputs": [
        {
          "internalType": "address",
          "name": "_owner",
          "type": "address"
        }
      ],
      "name": "getTokensByOwner",
      "outputs": [
        {
          "internalType": "uint256[]",
          "name": "",
          "type": "uint256[]"
        }
      ],
      "stateMutability": "view",
      "type": "function"
    },
    {
      "inputs": [
        {
          "internalType": "uint256",
          "name": "tokenId",
          "type": "uint256"
        }
      ],
      "name": "hasVoted",
      "outputs": [
        {
          "internalType": "bool",
          "name": "",
          "type": "bool"
        }
      ],
      "stateMutability": "view",
      "type": "function"
    },
    {
      "inputs": [
        {
          "internalType": "address",
          "name": "owner",
          "type": "address"
        },
        {
          "internalType": "address",
          "name": "operator",
          "type": "address"
        }
      ],
      "name": "isApprovedForAll",
      "outputs": [
        {
          "internalType": "bool",
          "name": "",
          "type": "bool"
        }
      ],
      "stateMutability": "view",
      "type": "function"
    },
    {
      "inputs": [
        {
          "internalType": "address",
          "name": "to",
          "type": "address"
        },
        {
          "internalType": "uint256",
          "name": "amount",
          "type": "uint256"
        }
      ],
      "name": "issueToken",
      "outputs": [
        {
          "internalType": "uint256",
          "name": "",
          "type": "uint256"
        }
      ],
      "stateMutability": "nonpayable",
      "type": "function"
    },
    {
      "inputs": [],
      "name": "name",
      "outputs": [
        {
          "internalType": "string",
          "name": "",
          "type": "string"
        }
      ],
      "stateMutability": "view",
      "type": "function"
    },
    {
      "inputs": [],
      "name": "owner",
      "outputs": [
        {
          "internalType": "address",
          "name": "",
          "type": "address"
        }
      ],
      "stateMutability": "view",
      "type": "function"
    },
    {
      "inputs": [
        {
          "internalType": "uint256",
          "name": "tokenId",
          "type": "uint256"
        }
      ],
      "name": "ownerOf",
      "outputs": [
        {
          "internalType": "address",
          "name": "",
          "type": "address"
        }
      ],
      "stateMutability": "view",
      "type": "function"
    },
    {
      "inputs": [],
      "name": "renounceOwnership",
      "outputs": [],
      "stateMutability": "nonpayable",
      "type": "function"
    },
    {
      "inputs": [
        {
          "internalType": "address",
          "name": "from",
          "type": "address"
        },
        {
          "internalType": "address",
          "name": "to",
          "type": "address"
        },
        {
          "internalType": "uint256",
          "name": "tokenId",
          "type": "uint256"
        }
      ],
      "name": "safeTransferFrom",
      "outputs": [],
      "stateMutability": "nonpayable",
      "type": "function"
    },
    {
      "inputs": [
        {
          "internalType": "address",
          "name": "from",
          "type": "address"
        },
        {
          "internalType": "address",
          "name": "to",
          "type": "address"
        },
        {
          "internalType": "uint256",
          "name": "tokenId",
          "type": "uint256"
        },
        {
          "internalType": "bytes",
          "name": "data",
          "type": "bytes"
        }
      ],
      "name": "safeTransferFrom",
      "outputs": [],
      "stateMutability": "nonpayable",
      "type": "function"
    },
    {
      "inputs": [
        {
          "internalType": "address",
          "name": "operator",
          "type": "address"
        },
        {
          "internalType": "bool",
          "name": "approved",
          "type": "bool"
        }
      ],
      "name": "setApprovalForAll",
      "outputs": [],
      "stateMutability": "nonpayable",
      "type": "function"
    },
    {
      "inputs": [
        {
          "internalType": "uint256",
          "name": "tokenId",
          "type": "uint256"
        }
      ],
      "name": "setUsedForVoting",
      "outputs": [],
      "stateMutability": "nonpayable",
      "type": "function"
    },
    {
      "inputs": [
        {
          "internalType": "bytes4",
          "name": "interfaceId",
          "type": "bytes4"
        }
      ],
      "name": "supportsInterface",
      "outputs": [
        {
          "internalType": "bool",
          "name": "",
          "type": "bool"
        }
      ],
      "stateMutability": "view",
      "type": "function"
    },
    {
      "inputs": [],
      "name": "symbol",
      "outputs": [
        {
          "internalType": "string",
          "name": "",
          "type": "string"
        }
      ],
      "stateMutability": "view",
      "type": "function"
    },
    {
      "inputs": [
        {
          "internalType": "uint256",
          "name": "tokenId",
          "type": "uint256"
        }
      ],
      "name": "tokenURI",
      "outputs": [
        {
          "internalType": "string",
          "name": "",
          "type": "string"
        }
      ],
      "stateMutability": "view",
      "type": "function"
    },
    {
      "inputs": [
        {
          "internalType": "address",
          "name": "from",
          "type": "address"
        },
        {
          "internalType": "address",
          "name": "to",
          "type": "address"
        },
        {
          "internalType": "uint256",
          "name": "tokenId",
          "type": "uint256"
        }
      ],
      "name": "transferFrom",
      "outputs": [],
      "stateMutability": "nonpayable",
      "type": "function"
    },
    {
      "inputs": [
        {
          "internalType": "address",
          "name": "newOwner",
          "type": "address"
        }
      ],
      "name": "transferOwnership",
      "outputs": [],
      "stateMutability": "nonpayable",
      "type": "function"
    },
    {
      "inputs": [
        {
          "internalType": "uint256",
          "name": "",
          "type": "uint256"
        }
      ],
      "name": "usedForVoting",
      "outputs": [
        {
          "internalType": "bool",
          "name": "",
          "type": "bool"
        }
      ],
      "stateMutability": "view",
      "type": "function"
    }
  ],
  "bytecode": "0x608060405260016007553480156200001657600080fd5b50336040518060400160405280600d81526020016c2237b730ba34b7b72a37b5b2b760991b8152506040518060400160405280600381526020016211139560ea1b81525081600090816200006b9190620001b7565b5060016200007a8282620001b7565b5050506001600160a01b038116620000ac57604051631e4fbdf760e01b81526000600482015260240160405180910390fd5b620000b781620000be565b5062000283565b600680546001600160a01b038381166001600160a01b0319831681179093556040519116919082907f8be0079c531659141344cd1fd0a4f28419497f9722a3daafe3b4186f6b6457e090600090a35050565b634e487b7160e01b600052604160045260246000fd5b600181811c908216806200013b57607f821691505b6020821081036200015c57634e487b7160e01b600052602260045260246000fd5b50919050565b601f821115620001b2576000816000526020600020601f850160051c810160208610156200018d5750805b601f850160051c820191505b81811015620001ae5782815560010162000199565b5050505b505050565b81516001600160401b03811115620001d357620001d362000110565b620001eb81620001e4845462000126565b8462000162565b602080601f8311600181146200022357600084156200020a5750858301515b600019600386901b1c1916600185901b178555620001ae565b600085815260208120601f198616915b82811015620002545788860151825594840194600190910190840162000233565b5085821015620002735787850151600019600388901b60f8161c191681555b5050505050600190811b01905550565b611b6080620002936000396000f3fe608060405234801561001057600080fd5b50600436106101a35760003560e01c80638ce491db116100ee578063b88d4fde11610097578063e74a84ea11610071578063e74a84ea1461038a578063e985e9c51461039d578063ecca031f146103d9578063f2fde38b146103fc57600080fd5b8063b88d4fde1461035c578063c87b56dd1461036f578063caa0f92a1461038257600080fd5b80639dc29fac116100c85780639dc29fac14610323578063a22cb46514610336578063a8f8742f1461034957600080fd5b80638ce491db146102ea5780638da5cb5b1461030a57806395d89b411461031b57600080fd5b806323b872dd116101505780636352211e1161012a5780636352211e146102bc57806370a08231146102cf578063715018a6146102e257600080fd5b806323b872dd1461027657806340398d671461028957806342842e0e146102a957600080fd5b8063081812fc11610181578063081812fc14610208578063095ea7b3146102335780630c79186c1461024857600080fd5b806301ffc9a7146101a8578063020b9445146101d057806306fdde03146101f3575b600080fd5b6101bb6101b6366004611647565b61040f565b60405190151581526020015b60405180910390f35b6101bb6101de366004611664565b60086020526000908152604090205460ff1681565b6101fb6104f4565b6040516101c791906116eb565b61021b610216366004611664565b610586565b6040516001600160a01b0390911681526020016101c7565b61024661024136600461171a565b6105af565b005b610268610256366004611664565b60009081526009602052604090205490565b6040519081526020016101c7565b610246610284366004611744565b6105be565b61029c610297366004611780565b610680565b6040516101c7919061179b565b6102466102b7366004611744565b6106ec565b61021b6102ca366004611664565b61070c565b6102686102dd366004611780565b610717565b610246610778565b6102686102f8366004611664565b60096020526000908152604090205481565b6006546001600160a01b031661021b565b6101fb61078c565b61024661033136600461171a565b61079b565b6102466103443660046117df565b6108a7565b610246610357366004611664565b6108b2565b61024661036a36600461184a565b610964565b6101fb61037d366004611664565b61097c565b600754610268565b61026861039836600461171a565b6109f1565b6101bb6103ab366004611944565b6001600160a01b03918216600090815260056020908152604080832093909416825291909152205460ff1690565b6101bb6103e7366004611664565b60009081526008602052604090205460ff1690565b61024661040a366004611780565b610abf565b60007fffffffff0000000000000000000000000000000000000000000000000000000082167f80ac58cd0000000000000000000000000000000000000000000000000000000014806104a257507fffffffff0000000000000000000000000000000000000000000000000000000082167f5b5e139f00000000000000000000000000000000000000000000000000000000145b806104ee57507f01ffc9a7000000000000000000000000000000000000000000000000000000007fffffffff000000000000000000000000000000000000000000000000000000008316145b92915050565b60606000805461050390611977565b80601f016020809104026020016040519081016040528092919081815260200182805461052f90611977565b801561057c5780601f106105515761010080835404028352916020019161057c565b820191906000526020600020905b81548152906001019060200180831161055f57829003601f168201915b5050505050905090565b600061059182610b16565b506000828152600460205260409020546001600160a01b03166104ee565b6105ba828233610b68565b5050565b6001600160a01b038216610606576040517f64a0ae92000000000000000000000000000000000000000000000000000000008152600060048201526024015b60405180910390fd5b6000610613838333610b75565b9050836001600160a01b0316816001600160a01b03161461067a576040517f64283d7b0000000000000000000000000000000000000000000000000000000081526001600160a01b03808616600483015260248201849052821660448201526064016105fd565b50505050565b6001600160a01b0381166000908152600a60209081526040918290208054835181840281018401909452808452606093928301828280156106e057602002820191906000526020600020905b8154815260200190600101908083116106cc575b50505050509050919050565b61070783838360405180602001604052806000815250610964565b505050565b60006104ee82610b16565b60006001600160a01b03821661075c576040517f89c62b64000000000000000000000000000000000000000000000000000000008152600060048201526024016105fd565b506001600160a01b031660009081526003602052604090205490565b610780610ca4565b61078a6000610cea565b565b60606001805461050390611977565b60008181526008602052604090205460ff16610839576040517f08c379a000000000000000000000000000000000000000000000000000000000815260206004820152602960248201527f546f6b656e206d757374206265207573656420666f7220766f74696e6720626560448201527f666f7265206275726e000000000000000000000000000000000000000000000060648201526084016105fd565b6000818152600960209081526040918290205482518481529182015233917f578e84976fed49c2de58e2642ded3fef6873a4b6d6104e8fee9897c41a538210910160405180910390a261088c8282610d54565b61089581610e81565b60009081526009602052604081205550565b6105ba338383610ed5565b60008181526008602052604090205460ff161561092b576040517f08c379a000000000000000000000000000000000000000000000000000000000815260206004820152601d60248201527f546f6b656e20616c7265616479207573656420666f7220766f74696e6700000060448201526064016105fd565b600090815260086020526040902080547fffffffffffffffffffffffffffffffffffffffffffffffffffffffffffffff00166001179055565b61096f8484846105be565b61067a3385858585610fab565b606061098782610b16565b50600061099f60408051602081019091526000815290565b905060008151116109bf57604051806020016040528060008152506109ea565b806109c984611170565b6040516020016109da9291906119ca565b6040516020818303038152906040525b9392505050565b60078054600091819083610a0483611a28565b90915550506000818152600960205260409020839055610a24848261122e565b6001600160a01b0384166000818152600a60209081526040808320805460018101825590845282842001859055848352600882529182902080547fffffffffffffffffffffffffffffffffffffffffffffffffffffffffffffff0016905581518481529081018690527f578e84976fed49c2de58e2642ded3fef6873a4b6d6104e8fee9897c41a538210910160405180910390a29392505050565b610ac7610ca4565b6001600160a01b038116610b0a576040517f1e4fbdf7000000000000000000000000000000000000000000000000000000008152600060048201526024016105fd565b610b1381610cea565b50565b6000818152600260205260408120546001600160a01b0316806104ee576040517f7e273289000000000000000000000000000000000000000000000000000000008152600481018490526024016105fd565b61070783838360016112c5565b6000828152600260205260408120546001600160a01b0390811690831615610ba257610ba281848661141b565b6001600160a01b03811615610bfe57610bbf6000856000806112c5565b6001600160a01b038116600090815260036020526040902080547fffffffffffffffffffffffffffffffffffffffffffffffffffffffffffffffff0190555b6001600160a01b03851615610c2d576001600160a01b0385166000908152600360205260409020805460010190555b60008481526002602052604080822080547fffffffffffffffffffffffff0000000000000000000000000000000000000000166001600160a01b0389811691821790925591518793918516917fddf252ad1be2c89b69c2b068fc378daa952ba7f163c4a11628f55a4df523b3ef91a4949350505050565b6006546001600160a01b0316331461078a576040517f118cdaa70000000000000000000000000000000000000000000000000000000081523360048201526024016105fd565b600680546001600160a01b038381167fffffffffffffffffffffffff0000000000000000000000000000000000000000831681179093556040519116919082907f8be0079c531659141344cd1fd0a4f28419497f9722a3daafe3b4186f6b6457e090600090a35050565b6001600160a01b0382166000908152600a6020526040812054905b8181101561067a576001600160a01b0384166000908152600a60205260409020805484919083908110610da457610da4611a60565b906000526020600020015403610e79576001600160a01b0384166000908152600a60205260409020610dd7600184611a8f565b81548110610de757610de7611a60565b9060005260206000200154600a6000866001600160a01b03166001600160a01b031681526020019081526020016000208281548110610e2857610e28611a60565b60009182526020808320909101929092556001600160a01b0386168152600a90915260409020805480610e5d57610e5d611aa2565b6001900381819060005260206000200160009055905550505050565b600101610d6f565b6000610e906000836000610b75565b90506001600160a01b0381166105ba576040517f7e273289000000000000000000000000000000000000000000000000000000008152600481018390526024016105fd565b6001600160a01b038216610f20576040517f5b08ba180000000000000000000000000000000000000000000000000000000081526001600160a01b03831660048201526024016105fd565b6001600160a01b0383811660008181526005602090815260408083209487168084529482529182902080547fffffffffffffffffffffffffffffffffffffffffffffffffffffffffffffff001686151590811790915591519182527f17307eab39ab6107e8899845ad3d59bd9653f200f220920489ca2b5937696c31910160405180910390a3505050565b6001600160a01b0383163b15611169576040517f150b7a020000000000000000000000000000000000000000000000000000000081526001600160a01b0384169063150b7a0290611006908890889087908790600401611ad1565b6020604051808303816000875af192505050801561105f575060408051601f3d9081017fffffffffffffffffffffffffffffffffffffffffffffffffffffffffffffffe016820190925261105c91810190611b0d565b60015b6110e1573d80801561108d576040519150601f19603f3d011682016040523d82523d6000602084013e611092565b606091505b5080516000036110d9576040517f64a0ae920000000000000000000000000000000000000000000000000000000081526001600160a01b03851660048201526024016105fd565b805181602001fd5b7fffffffff0000000000000000000000000000000000000000000000000000000081167f150b7a020000000000000000000000000000000000000000000000000000000014611167576040517f64a0ae920000000000000000000000000000000000000000000000000000000081526001600160a01b03851660048201526024016105fd565b505b5050505050565b6060600061117d836114b1565b600101905060008167ffffffffffffffff81111561119d5761119d61181b565b6040519080825280601f01601f1916602001820160405280156111c7576020820181803683370190505b5090508181016020015b7fffffffffffffffffffffffffffffffffffffffffffffffffffffffffffffffff017f3031323334353637383961626364656600000000000000000000000000000000600a86061a8153600a85049450846111d157509392505050565b6001600160a01b038216611271576040517f64a0ae92000000000000000000000000000000000000000000000000000000008152600060048201526024016105fd565b600061127f83836000610b75565b90506001600160a01b03811615610707576040517f73c6ac6e000000000000000000000000000000000000000000000000000000008152600060048201526024016105fd565b80806112d957506001600160a01b03821615155b156113d35760006112e984610b16565b90506001600160a01b038316158015906113155750826001600160a01b0316816001600160a01b031614155b801561134757506001600160a01b0380821660009081526005602090815260408083209387168352929052205460ff16155b15611389576040517fa9fbf51f0000000000000000000000000000000000000000000000000000000081526001600160a01b03841660048201526024016105fd565b81156113d15783856001600160a01b0316826001600160a01b03167f8c5be1e5ebec7d5bd14f71427d1e84f3dd0314c0f7b2291e5b200ac8c7c3b92560405160405180910390a45b505b5050600090815260046020526040902080547fffffffffffffffffffffffff0000000000000000000000000000000000000000166001600160a01b0392909216919091179055565b611426838383611593565b610707576001600160a01b03831661146d576040517f7e273289000000000000000000000000000000000000000000000000000000008152600481018290526024016105fd565b6040517f177e802f0000000000000000000000000000000000000000000000000000000081526001600160a01b0383166004820152602481018290526044016105fd565b6000807a184f03e93ff9f4daa797ed6e38ed64bf6a1f01000000000000000083106114fa577a184f03e93ff9f4daa797ed6e38ed64bf6a1f010000000000000000830492506040015b6d04ee2d6d415b85acef81000000008310611526576d04ee2d6d415b85acef8100000000830492506020015b662386f26fc10000831061154457662386f26fc10000830492506010015b6305f5e100831061155c576305f5e100830492506008015b612710831061157057612710830492506004015b60648310611582576064830492506002015b600a83106104ee5760010192915050565b60006001600160a01b038316158015906116115750826001600160a01b0316846001600160a01b031614806115ed57506001600160a01b0380851660009081526005602090815260408083209387168352929052205460ff165b8061161157506000828152600460205260409020546001600160a01b038481169116145b949350505050565b7fffffffff0000000000000000000000000000000000000000000000000000000081168114610b1357600080fd5b60006020828403121561165957600080fd5b81356109ea81611619565b60006020828403121561167657600080fd5b5035919050565b60005b83811015611698578181015183820152602001611680565b50506000910152565b600081518084526116b981602086016020860161167d565b601f017fffffffffffffffffffffffffffffffffffffffffffffffffffffffffffffffe0169290920160200192915050565b6020815260006109ea60208301846116a1565b80356001600160a01b038116811461171557600080fd5b919050565b6000806040838503121561172d57600080fd5b611736836116fe565b946020939093013593505050565b60008060006060848603121561175957600080fd5b611762846116fe565b9250611770602085016116fe565b9150604084013590509250925092565b60006020828403121561179257600080fd5b6109ea826116fe565b6020808252825182820181905260009190848201906040850190845b818110156117d3578351835292840192918401916001016117b7565b50909695505050505050565b600080604083850312156117f257600080fd5b6117fb836116fe565b91506020830135801515811461181057600080fd5b809150509250929050565b7f4e487b7100000000000000000000000000000000000000000000000000000000600052604160045260246000fd5b6000806000806080858703121561186057600080fd5b611869856116fe565b9350611877602086016116fe565b925060408501359150606085013567ffffffffffffffff8082111561189b57600080fd5b818701915087601f8301126118af57600080fd5b8135818111156118c1576118c161181b565b604051601f82017fffffffffffffffffffffffffffffffffffffffffffffffffffffffffffffffe0908116603f011681019083821181831017156119075761190761181b565b816040528281528a602084870101111561192057600080fd5b82602086016020830137600060208483010152809550505050505092959194509250565b6000806040838503121561195757600080fd5b611960836116fe565b915061196e602084016116fe565b90509250929050565b600181811c9082168061198b57607f821691505b6020821081036119c4577f4e487b7100000000000000000000000000000000000000000000000000000000600052602260045260246000fd5b50919050565b600083516119dc81846020880161167d565b8351908301906119f081836020880161167d565b01949350505050565b7f4e487b7100000000000000000000000000000000000000000000000000000000600052601160045260246000fd5b60007fffffffffffffffffffffffffffffffffffffffffffffffffffffffffffffffff8203611a5957611a596119f9565b5060010190565b7f4e487b7100000000000000000000000000000000000000000000000000000000600052603260045260246000fd5b818103818111156104ee576104ee6119f9565b7f4e487b7100000000000000000000000000000000000000000000000000000000600052603160045260246000fd5b60006001600160a01b03808716835280861660208401525083604083015260806060830152611b0360808301846116a1565b9695505050505050565b600060208284031215611b1f57600080fd5b81516109ea8161161956fea2646970667358221220f0e22c5baee27ab567106f2ab3d9fd0f37e9329258a9d3a64ec98f27aaa1821e64736f6c63430008180033",
  "linkReferences": {},
  "deployedLinkReferences": {}
}