{
  "_format": "hh-sol-artifact-1",
  "contractName": "DonationToken",
  "sourceName": "contracts/DonationToken.sol",
  "abi": [
    {
      "anonymous": false,
      "inputs": [
        {
          "indexed": true,
          "internalType": "address",
          "name": "owner",
          "type": "address"
        },
        {
          "indexed": true,
          "internalType": "address",
          "name": "spender",
          "type": "address"
        },
        {
          "indexed": false,
          "internalType": "uint256",
          "name": "value",
          "type": "uint256"
        }
      ],
      "name": "Approval",
      "type": "event"
    },
    {
      "anonymous": false,
      "inputs": [
        {
          "indexed": true,
          "internalType": "address",
          "name": "from",
          "type": "address"
        },
        {
          "indexed": true,
          "internalType": "address",
          "name": "to",
          "type": "address"
        },
        {
          "indexed": true,
          "internalType": "uint256",
          "name": "tokenId",
          "type": "uint256"
        }
      ],
      "name": "Transfer",
      "type": "event"
    },
    {
      "inputs": [
        {
          "internalType": "address",
          "name": "_spender",
          "type": "address"
        },
        {
          "internalType": "uint256",
          "name": "_value",
          "type": "uint256"
        }
      ],
      "name": "approve",
      "outputs": [
        {
          "internalType": "bool",
          "name": "",
          "type": "bool"
        }
      ],
      "stateMutability": "nonpayable",
      "type": "function"
    },
    {
      "inputs": [
        {
          "internalType": "address",
          "name": "_donor",
          "type": "address"
        }
      ],
      "name": "balanceOf",
      "outputs": [
        {
          "internalType": "uint256",
          "name": "",
          "type": "uint256"
        }
      ],
      "stateMutability": "view",
      "type": "function"
    },
    {
      "inputs": [
        {
          "internalType": "uint256",
          "name": "",
          "type": "uint256"
        }
      ],
      "name": "donationAssets",
      "outputs": [
        {
          "internalType": "uint256",
          "name": "id",
          "type": "uint256"
        },
        {
          "internalType": "uint256",
          "name": "amount",
          "type": "uint256"
        },
        {
          "internalType": "address",
          "name": "donor",
          "type": "address"
        }
      ],
      "stateMutability": "view",
      "type": "function"
    },
    {
      "inputs": [
        {
          "internalType": "address",
          "name": "",
          "type": "address"
        }
      ],
      "name": "donorTokenCount",
      "outputs": [
        {
          "internalType": "uint256",
          "name": "",
          "type": "uint256"
        }
      ],
      "stateMutability": "view",
      "type": "function"
    },
    {
      "inputs": [
        {
          "internalType": "address",
          "name": "_owner",
          "type": "address"
        },
        {
          "internalType": "uint256",
          "name": "_tokenId",
          "type": "uint256"
        }
      ],
      "name": "isTokenOwner",
      "outputs": [
        {
          "internalType": "bool",
          "name": "",
          "type": "bool"
        }
      ],
      "stateMutability": "view",
      "type": "function"
    },
    {
      "inputs": [
        {
          "internalType": "uint256",
          "name": "_id",
          "type": "uint256"
        },
        {
          "internalType": "uint256",
          "name": "_amount",
          "type": "uint256"
        }
      ],
      "name": "issueToken",
      "outputs": [],
      "stateMutability": "nonpayable",
      "type": "function"
    },
    {
      "inputs": [],
      "name": "nbtokens",
      "outputs": [
        {
          "internalType": "uint256",
          "name": "",
          "type": "uint256"
        }
      ],
      "stateMutability": "view",
      "type": "function"
    },
    {
      "inputs": [
        {
          "internalType": "uint256",
          "name": "",
          "type": "uint256"
        }
      ],
      "name": "tokenIds",
      "outputs": [
        {
          "internalType": "uint256",
          "name": "",
          "type": "uint256"
        }
      ],
      "stateMutability": "view",
      "type": "function"
    },
    {
      "inputs": [],
      "name": "totalSupply",
      "outputs": [
        {
          "internalType": "uint256",
          "name": "",
          "type": "uint256"
        }
      ],
      "stateMutability": "view",
      "type": "function"
    },
    {
      "inputs": [
        {
          "internalType": "address",
          "name": "_from",
          "type": "address"
        },
        {
          "internalType": "address",
          "name": "_to",
          "type": "address"
        },
        {
          "internalType": "uint256",
          "name": "_value",
          "type": "uint256"
        }
      ],
      "name": "transferFrom",
      "outputs": [
        {
          "internalType": "bool",
          "name": "",
          "type": "bool"
        }
      ],
      "stateMutability": "nonpayable",
      "type": "function"
    },
    {
      "inputs": [
        {
          "internalType": "address",
          "name": "_to",
          "type": "address"
        },
        {
          "internalType": "uint256",
          "name": "_tokenId",
          "type": "uint256"
        }
      ],
      "name": "transferToken",
      "outputs": [],
      "stateMutability": "nonpayable",
      "type": "function"
    },
    {
      "inputs": [],
      "name": "viewAllTokens",
      "outputs": [
        {
          "components": [
            {
              "internalType": "uint256",
              "name": "id",
              "type": "uint256"
            },
            {
              "internalType": "uint256",
              "name": "amount",
              "type": "uint256"
            },
            {
              "internalType": "address",
              "name": "donor",
              "type": "address"
            }
          ],
          "internalType": "struct DonationToken.DonationAsset[]",
          "name": "",
          "type": "tuple[]"
        }
      ],
      "stateMutability": "view",
      "type": "function"
    },
    {
      "inputs": [
        {
          "internalType": "uint256",
          "name": "_tokenId",
          "type": "uint256"
        }
      ],
      "name": "viewToken",
      "outputs": [
        {
          "internalType": "uint256",
          "name": "",
          "type": "uint256"
        },
        {
          "internalType": "uint256",
          "name": "",
          "type": "uint256"
        },
        {
          "internalType": "address",
          "name": "",
          "type": "address"
        }
      ],
      "stateMutability": "view",
      "type": "function"
    }
  ],
  "bytecode": "0x608060405234801561001057600080fd5b50610ee4806100206000396000f3fe608060405234801561001057600080fd5b50600436106100df5760003560e01c8063806477f21161008c578063a409371811610066578063a4093718146102a7578063b1e7e604146102ba578063d58778d6146102c3578063edb3ee8d146102d657600080fd5b8063806477f2146101955780638334d1951461020a57806398f7ceab1461026857600080fd5b806318160ddd116100bd57806318160ddd1461013a57806323b872dd1461014c57806370a082311461015f57600080fd5b806302cfba81146100e4578063095ea7b3146101025780631072cbea14610125575b600080fd5b6100ec6102f6565b6040516100f99190610c33565b60405180910390f35b610115610110366004610ccb565b610427565b60405190151581526020016100f9565b610138610133366004610ccb565b6104a1565b005b6000545b6040519081526020016100f9565b61011561015a366004610cf5565b610765565b61013e61016d366004610d31565b73ffffffffffffffffffffffffffffffffffffffff1660009081526003602052604090205490565b6101d96101a3366004610d53565b600260208190526000918252604090912080546001820154919092015473ffffffffffffffffffffffffffffffffffffffff1683565b60408051938452602084019290925273ffffffffffffffffffffffffffffffffffffffff16908201526060016100f9565b6101d9610218366004610d53565b600090815260026020818152604092839020835160608101855281548082526001830154938201849052919093015473ffffffffffffffffffffffffffffffffffffffff16929093018290529192565b610115610276366004610ccb565b6000908152600260208190526040909120015473ffffffffffffffffffffffffffffffffffffffff91821691161490565b6101386102b5366004610d6c565b610a95565b61013e60005481565b61013e6102d1366004610d53565b610c12565b61013e6102e4366004610d31565b60036020526000908152604090205481565b60606000805467ffffffffffffffff81111561031457610314610d8e565b60405190808252806020026020018201604052801561037f57816020015b61036c60405180606001604052806000815260200160008152602001600073ffffffffffffffffffffffffffffffffffffffff1681525090565b8152602001906001900390816103325790505b50905060005b6001548110156104215760026000600183815481106103a6576103a6610dbd565b6000918252602080832090910154835282810193909352604091820190208151606081018352815481526001820154938101939093526002015473ffffffffffffffffffffffffffffffffffffffff1690820152825183908390811061040e5761040e610dbd565b6020908102919091010152600101610385565b50919050565b33600081815260046020908152604080832073ffffffffffffffffffffffffffffffffffffffff8716808552925280832085905551919290917f8c5be1e5ebec7d5bd14f71427d1e84f3dd0314c0f7b2291e5b200ac8c7c3b9259061048f9086815260200190565b60405180910390a35060015b92915050565b600081815260026020819052604090912001543390829073ffffffffffffffffffffffffffffffffffffffff168214610561576040517f08c379a000000000000000000000000000000000000000000000000000000000815260206004820152602360248201527f596f7520617265206e6f7420746865206f776e6572206f66207468697320746f60448201527f6b656e000000000000000000000000000000000000000000000000000000000060648201526084015b60405180910390fd5b73ffffffffffffffffffffffffffffffffffffffff84166105de576040517f08c379a000000000000000000000000000000000000000000000000000000000815260206004820152600f60248201527f496e76616c6964206164647265737300000000000000000000000000000000006044820152606401610558565b60008381526002602081815260408084209092015473ffffffffffffffffffffffffffffffffffffffff16835260039052902054610678576040517f08c379a000000000000000000000000000000000000000000000000000000000815260206004820152601360248201527f4f776e657220686173206e6f20746f6b656e73000000000000000000000000006044820152606401610558565b600083815260026020818152604080842090920180547fffffffffffffffffffffffff00000000000000000000000000000000000000001673ffffffffffffffffffffffffffffffffffffffff89161790553383526003905281208054916106df83610e1b565b909155505073ffffffffffffffffffffffffffffffffffffffff8416600090815260036020526040812080549161071583610e50565b9091555050604051839073ffffffffffffffffffffffffffffffffffffffff86169033907fddf252ad1be2c89b69c2b068fc378daa952ba7f163c4a11628f55a4df523b3ef90600090a450505050565b600073ffffffffffffffffffffffffffffffffffffffff84166107e4576040517f08c379a000000000000000000000000000000000000000000000000000000000815260206004820152600f60248201527f496e76616c6964206164647265737300000000000000000000000000000000006044820152606401610558565b73ffffffffffffffffffffffffffffffffffffffff8316610861576040517f08c379a000000000000000000000000000000000000000000000000000000000815260206004820152600f60248201527f496e76616c6964206164647265737300000000000000000000000000000000006044820152606401610558565b73ffffffffffffffffffffffffffffffffffffffff84166000908152600360205260409020548211156108f0576040517f08c379a000000000000000000000000000000000000000000000000000000000815260206004820152601460248201527f496e73756666696369656e742062616c616e63650000000000000000000000006044820152606401610558565b73ffffffffffffffffffffffffffffffffffffffff8416600090815260046020908152604080832033845290915290205482111561098a576040517f08c379a000000000000000000000000000000000000000000000000000000000815260206004820152601260248201527f416c6c6f77616e636520657863656564656400000000000000000000000000006044820152606401610558565b73ffffffffffffffffffffffffffffffffffffffff8416600090815260036020526040812080548492906109bf908490610e88565b909155505073ffffffffffffffffffffffffffffffffffffffff8316600090815260036020526040812080548492906109f9908490610e9b565b909155505073ffffffffffffffffffffffffffffffffffffffff8416600090815260046020908152604080832033845290915281208054849290610a3e908490610e88565b9091555050604051829073ffffffffffffffffffffffffffffffffffffffff80861691908716907fddf252ad1be2c89b69c2b068fc378daa952ba7f163c4a11628f55a4df523b3ef90600090a45060019392505050565b60008281526002602052604090205415610b31576040517f08c379a000000000000000000000000000000000000000000000000000000000815260206004820152602160248201527f546f6b656e2077697468207468697320494420616c726561647920657869737460448201527f73000000000000000000000000000000000000000000000000000000000000006064820152608401610558565b6040805160608101825283815260208082018481523383850181815260008881526002808652878220965187559351600187015590519490920180547fffffffffffffffffffffffff00000000000000000000000000000000000000001673ffffffffffffffffffffffffffffffffffffffff9095169490941790935591825260039052908120805491610bc483610e50565b909155505060018054808201825560009182527fb10e2d527612073b26eecdfd717e6a320cf44b4afac2b0732d9fcbe2b7fa0cf60183905580549080610c0983610e50565b91905055505050565b60018181548110610c2257600080fd5b600091825260209091200154905081565b602080825282518282018190526000919060409081850190868401855b82811015610c9557815180518552868101518786015285015173ffffffffffffffffffffffffffffffffffffffff168585015260609093019290850190600101610c50565b5091979650505050505050565b803573ffffffffffffffffffffffffffffffffffffffff81168114610cc657600080fd5b919050565b60008060408385031215610cde57600080fd5b610ce783610ca2565b946020939093013593505050565b600080600060608486031215610d0a57600080fd5b610d1384610ca2565b9250610d2160208501610ca2565b9150604084013590509250925092565b600060208284031215610d4357600080fd5b610d4c82610ca2565b9392505050565b600060208284031215610d6557600080fd5b5035919050565b60008060408385031215610d7f57600080fd5b50508035926020909101359150565b7f4e487b7100000000000000000000000000000000000000000000000000000000600052604160045260246000fd5b7f4e487b7100000000000000000000000000000000000000000000000000000000600052603260045260246000fd5b7f4e487b7100000000000000000000000000000000000000000000000000000000600052601160045260246000fd5b600081610e2a57610e2a610dec565b507fffffffffffffffffffffffffffffffffffffffffffffffffffffffffffffffff0190565b60007fffffffffffffffffffffffffffffffffffffffffffffffffffffffffffffffff8203610e8157610e81610dec565b5060010190565b8181038181111561049b5761049b610dec565b8082018082111561049b5761049b610dec56fea2646970667358221220ba0943b98391f6eea763cd06e30b7d33d04fb6c8a5522e2abcd1a374886eaccc64736f6c63430008180033",
  "linkReferences": {},
  "deployedLinkReferences": {}
}