{
  "_format": "hh-sol-artifact-1",
  "contractName": "Proposal",
  "sourceName": "contracts/Proposal.sol",
  "abi": [
    {
      "inputs": [],
      "name": "createProposal",
      "outputs": [],
      "stateMutability": "nonpayable",
      "type": "function"
    },
    {
      "inputs": [
        {
          "internalType": "uint256",
          "name": "_proposalId",
          "type": "uint256"
        }
      ],
      "name": "getProposalFunds",
      "outputs": [
        {
          "internalType": "uint256",
          "name": "",
          "type": "uint256"
        }
      ],
      "stateMutability": "view",
      "type": "function"
    },
    {
      "inputs": [],
      "name": "getProposals",
      "outputs": [
        {
          "components": [
            {
              "internalType": "uint256",
              "name": "id",
              "type": "uint256"
            },
            {
              "internalType": "uint256",
              "name": "voteCount",
              "type": "uint256"
            }
          ],
          "internalType": "struct Proposal.ProposalDetails[]",
          "name": "",
          "type": "tuple[]"
        }
      ],
      "stateMutability": "view",
      "type": "function"
    },
    {
      "inputs": [
        {
          "internalType": "address",
          "name": "",
          "type": "address"
        }
      ],
      "name": "hasVoted",
      "outputs": [
        {
          "internalType": "bool",
          "name": "",
          "type": "bool"
        }
      ],
      "stateMutability": "view",
      "type": "function"
    },
    {
      "inputs": [
        {
          "internalType": "uint256",
          "name": "",
          "type": "uint256"
        }
      ],
      "name": "proposals",
      "outputs": [
        {
          "internalType": "uint256",
          "name": "id",
          "type": "uint256"
        },
        {
          "internalType": "uint256",
          "name": "voteCount",
          "type": "uint256"
        }
      ],
      "stateMutability": "view",
      "type": "function"
    },
    {
      "inputs": [
        {
          "internalType": "uint256",
          "name": "_proposalId",
          "type": "uint256"
        }
      ],
      "name": "vote",
      "outputs": [],
      "stateMutability": "payable",
      "type": "function"
    }
  ],
  "bytecode": "0x608060405234801561001057600080fd5b5061055c806100206000396000f3fe6080604052600436106100655760003560e01c8063180fd87f11610043578063180fd87f146100f957806350e706fb1461010e57806362564c481461013c57600080fd5b80630121b93f1461006a578063013cf08b1461007f57806309eef43e146100b9575b600080fd5b61007d6100783660046103f7565b61015e565b005b34801561008b57600080fd5b5061009f61009a3660046103f7565b610221565b604080519283526020830191909152015b60405180910390f35b3480156100c557600080fd5b506100e96100d4366004610410565b60016020526000908152604090205460ff1681565b60405190151581526020016100b0565b34801561010557600080fd5b5061007d61024f565b34801561011a57600080fd5b5061012e6101293660046103f7565b6102d5565b6040519081526020016100b0565b34801561014857600080fd5b50610151610384565b6040516100b0919061044d565b60008111801561017057506000548111155b6101db576040517f08c379a000000000000000000000000000000000000000000000000000000000815260206004820152601360248201527f496e76616c69642070726f706f73616c2049440000000000000000000000000060448201526064015b60405180910390fd5b3460006101e96001846104cb565b815481106101f9576101f96104e4565b906000526020600020906002020160010160008282546102199190610513565b909155505050565b6000818154811061023157600080fd5b60009182526020909120600290910201805460019091015490915082565b6000805461025e906001610513565b60408051808201909152908152600060208201818152815460018101835591805291517f290decd9548b62a8d60345a988386fc84ba6bc95484008f6362f93160ef3e56360029092029182015590517f290decd9548b62a8d60345a988386fc84ba6bc95484008f6362f93160ef3e5649091015550565b600080821180156102e857506000548211155b61034e576040517f08c379a000000000000000000000000000000000000000000000000000000000815260206004820152601360248201527f496e76616c69642070726f706f73616c2049440000000000000000000000000060448201526064016101d2565b600061035b6001846104cb565b8154811061036b5761036b6104e4565b9060005260206000209060020201600101549050919050565b60606000805480602002602001604051908101604052809291908181526020016000905b828210156103ee578382906000526020600020906002020160405180604001604052908160008201548152602001600182015481525050815260200190600101906103a8565b50505050905090565b60006020828403121561040957600080fd5b5035919050565b60006020828403121561042257600080fd5b813573ffffffffffffffffffffffffffffffffffffffff8116811461044657600080fd5b9392505050565b602080825282518282018190526000919060409081850190868401855b8281101561048f5781518051855286015186850152928401929085019060010161046a565b5091979650505050505050565b7f4e487b7100000000000000000000000000000000000000000000000000000000600052601160045260246000fd5b818103818111156104de576104de61049c565b92915050565b7f4e487b7100000000000000000000000000000000000000000000000000000000600052603260045260246000fd5b808201808211156104de576104de61049c56fea2646970667358221220d00cc35fc45e0adde77e3634846d4ca7583f24eef61fdf04898715a44dc9ad9164736f6c63430008180033",
  "linkReferences": {},
  "deployedLinkReferences": {}
}