{
  "_format": "hh-sol-artifact-1",
  "contractName": "Proposal",
  "sourceName": "contracts/Proposal.sol",
  "abi": [
    {
      "inputs": [
        {
          "internalType": "address",
          "name": "_donationToken",
          "type": "address"
        }
      ],
      "stateMutability": "nonpayable",
      "type": "constructor"
    },
    {
      "anonymous": false,
      "inputs": [
        {
          "indexed": true,
          "internalType": "address",
          "name": "voter",
          "type": "address"
        },
        {
          "indexed": false,
          "internalType": "uint256",
          "name": "proposalId",
          "type": "uint256"
        }
      ],
      "name": "VoteCast",
      "type": "event"
    },
    {
      "inputs": [
        {
          "internalType": "address",
          "name": "_beneficiary",
          "type": "address"
        }
      ],
      "name": "createProposal",
      "outputs": [],
      "stateMutability": "nonpayable",
      "type": "function"
    },
    {
      "inputs": [],
      "name": "donationToken",
      "outputs": [
        {
          "internalType": "contract DonationToken",
          "name": "",
          "type": "address"
        }
      ],
      "stateMutability": "view",
      "type": "function"
    },
    {
      "inputs": [
        {
          "internalType": "uint256",
          "name": "_proposalId",
          "type": "uint256"
        }
      ],
      "name": "getProposalBeneficiary",
      "outputs": [
        {
          "internalType": "address",
          "name": "",
          "type": "address"
        }
      ],
      "stateMutability": "view",
      "type": "function"
    },
    {
      "inputs": [],
      "name": "getProposalCount",
      "outputs": [
        {
          "internalType": "uint256",
          "name": "",
          "type": "uint256"
        }
      ],
      "stateMutability": "view",
      "type": "function"
    },
    {
      "inputs": [
        {
          "internalType": "uint256",
          "name": "_proposalId",
          "type": "uint256"
        }
      ],
      "name": "getProposalFunds",
      "outputs": [
        {
          "internalType": "uint256",
          "name": "",
          "type": "uint256"
        }
      ],
      "stateMutability": "view",
      "type": "function"
    },
    {
      "inputs": [
        {
          "internalType": "uint256",
          "name": "_proposalId",
          "type": "uint256"
        }
      ],
      "name": "getProposalPercentage",
      "outputs": [
        {
          "internalType": "uint256",
          "name": "",
          "type": "uint256"
        }
      ],
      "stateMutability": "view",
      "type": "function"
    },
    {
      "inputs": [
        {
          "internalType": "uint256",
          "name": "_proposalId",
          "type": "uint256"
        }
      ],
      "name": "getProposalVotes",
      "outputs": [
        {
          "internalType": "uint256",
          "name": "",
          "type": "uint256"
        }
      ],
      "stateMutability": "view",
      "type": "function"
    },
    {
      "inputs": [],
      "name": "getProposals",
      "outputs": [
        {
          "components": [
            {
              "internalType": "uint256",
              "name": "id",
              "type": "uint256"
            },
            {
              "internalType": "uint256",
              "name": "voteCount",
              "type": "uint256"
            },
            {
              "internalType": "address",
              "name": "beneficiary",
              "type": "address"
            }
          ],
          "internalType": "struct Proposal.ProposalDetails[]",
          "name": "",
          "type": "tuple[]"
        }
      ],
      "stateMutability": "view",
      "type": "function"
    },
    {
      "inputs": [],
      "name": "getTotalVotes",
      "outputs": [
        {
          "internalType": "uint256",
          "name": "total",
          "type": "uint256"
        }
      ],
      "stateMutability": "view",
      "type": "function"
    },
    {
      "inputs": [
        {
          "internalType": "uint256",
          "name": "",
          "type": "uint256"
        },
        {
          "internalType": "address",
          "name": "",
          "type": "address"
        }
      ],
      "name": "hasVoted",
      "outputs": [
        {
          "internalType": "bool",
          "name": "",
          "type": "bool"
        }
      ],
      "stateMutability": "view",
      "type": "function"
    },
    {
      "inputs": [
        {
          "internalType": "uint256",
          "name": "",
          "type": "uint256"
        }
      ],
      "name": "proposals",
      "outputs": [
        {
          "internalType": "uint256",
          "name": "id",
          "type": "uint256"
        },
        {
          "internalType": "uint256",
          "name": "voteCount",
          "type": "uint256"
        },
        {
          "internalType": "address",
          "name": "beneficiary",
          "type": "address"
        }
      ],
      "stateMutability": "view",
      "type": "function"
    },
    {
      "inputs": [
        {
          "internalType": "uint256",
          "name": "_proposalId",
          "type": "uint256"
        },
        {
          "internalType": "uint256",
          "name": "_tokenId",
          "type": "uint256"
        }
      ],
      "name": "vote",
      "outputs": [],
      "stateMutability": "nonpayable",
      "type": "function"
    }
  ],
  "bytecode": "0x608060405234801561001057600080fd5b50604051610ec1380380610ec183398101604081905261002f916100ae565b6001600160a01b0381166100895760405162461bcd60e51b815260206004820152601e60248201527f496e76616c696420646f6e6174696f6e20746f6b656e20616464726573730000604482015260640160405180910390fd5b600180546001600160a01b0319166001600160a01b03929092169190911790556100de565b6000602082840312156100c057600080fd5b81516001600160a01b03811681146100d757600080fd5b9392505050565b610dd4806100ed6000396000f3fe608060405234801561001057600080fd5b50600436106100d45760003560e01c806362564c4811610081578063ad7e6dec1161005b578063ad7e6dec146102e9578063b384abef146102fc578063c08cc02d1461030f57600080fd5b806362564c48146102b95780639a0e7d66146102ce578063a656985d146102d657600080fd5b806343859632116100b2578063438596321461025a57806347c661401461029857806350e706fb1461029857600080fd5b8063013cf08b146100d957806307eecaf5146101225780630df7215914610215575b600080fd5b6100ec6100e7366004610b3b565b610317565b60408051938452602084019290925273ffffffffffffffffffffffffffffffffffffffff16908201526060015b60405180910390f35b610213610130366004610b79565b60008054604080516060810182528281526020810184815273ffffffffffffffffffffffffffffffffffffffff958616928201928352600184018555938052517f290decd9548b62a8d60345a988386fc84ba6bc95484008f6362f93160ef3e56360039093029283015591517f290decd9548b62a8d60345a988386fc84ba6bc95484008f6362f93160ef3e56482015590517f290decd9548b62a8d60345a988386fc84ba6bc95484008f6362f93160ef3e56590910180547fffffffffffffffffffffffff00000000000000000000000000000000000000001691909216179055565b005b6001546102359073ffffffffffffffffffffffffffffffffffffffff1681565b60405173ffffffffffffffffffffffffffffffffffffffff9091168152602001610119565b610288610268366004610b9d565b600260209081526000928352604080842090915290825290205460ff1681565b6040519015158152602001610119565b6102ab6102a6366004610b3b565b610360565b604051908152602001610119565b6102c1610400565b6040516101199190610bcd565b6102ab61048f565b6102356102e4366004610b3b565b6104db565b6102ab6102f7366004610b3b565b61058d565b61021361030a366004610c3c565b610659565b6000546102ab565b6000818154811061032757600080fd5b600091825260209091206003909102018054600182015460029092015490925073ffffffffffffffffffffffffffffffffffffffff1683565b60008160005481106103d3576040517f08c379a000000000000000000000000000000000000000000000000000000000815260206004820152601360248201527f496e76616c69642070726f706f73616c2049440000000000000000000000000060448201526064015b60405180910390fd5b600083815481106103e6576103e6610c5e565b906000526020600020906003020160010154915050919050565b60606000805480602002602001604051908101604052809291908181526020016000905b828210156104865760008481526020908190206040805160608101825260038602909201805483526001808201548486015260029091015473ffffffffffffffffffffffffffffffffffffffff16918301919091529083529092019101610424565b50505050905090565b6000805b6000548110156104d757600081815481106104b0576104b0610c5e565b906000526020600020906003020160010154826104cd9190610cbc565b9150600101610493565b5090565b6000816000548110610549576040517f08c379a000000000000000000000000000000000000000000000000000000000815260206004820152601360248201527f496e76616c69642070726f706f73616c2049440000000000000000000000000060448201526064016103ca565b6000838154811061055c5761055c610c5e565b600091825260209091206003909102016002015473ffffffffffffffffffffffffffffffffffffffff169392505050565b60008160005481106105fb576040517f08c379a000000000000000000000000000000000000000000000000000000000815260206004820152601360248201527f496e76616c69642070726f706f73616c2049440000000000000000000000000060448201526064016103ca565b600061060561048f565b9050801561064e57806000858154811061062157610621610c5e565b906000526020600020906003020160010154606461063f9190610cd5565b6106499190610cec565b610651565b60005b949350505050565b8160005481106106c5576040517f08c379a000000000000000000000000000000000000000000000000000000000815260206004820152601360248201527f496e76616c69642070726f706f73616c2049440000000000000000000000000060448201526064016103ca565b6001546040517f6352211e00000000000000000000000000000000000000000000000000000000815260048101849052339173ffffffffffffffffffffffffffffffffffffffff1690636352211e90602401602060405180830381865afa158015610734573d6000803e3d6000fd5b505050506040513d601f19601f820116820180604052508101906107589190610d27565b73ffffffffffffffffffffffffffffffffffffffff16146107d5576040517f08c379a000000000000000000000000000000000000000000000000000000000815260206004820152600e60248201527f4e6f7420796f757220746f6b656e00000000000000000000000000000000000060448201526064016103ca565b600083815260026020908152604080832033845290915290205460ff161561087f576040517f08c379a000000000000000000000000000000000000000000000000000000000815260206004820152602760248201527f596f75206861766520616c726561647920766f746564206f6e2074686973207060448201527f726f706f73616c0000000000000000000000000000000000000000000000000060648201526084016103ca565b6001546040517fecca031f0000000000000000000000000000000000000000000000000000000081526004810184905273ffffffffffffffffffffffffffffffffffffffff9091169063ecca031f90602401602060405180830381865afa1580156108ee573d6000803e3d6000fd5b505050506040513d601f19601f820116820180604052508101906109129190610d44565b15610979576040517f08c379a000000000000000000000000000000000000000000000000000000000815260206004820152601d60248201527f546f6b656e20616c7265616479207573656420666f7220766f74696e6700000060448201526064016103ca565b60008381526002602090815260408083203384529091529081902080547fffffffffffffffffffffffffffffffffffffffffffffffffffffffffffffff001660019081179091555490517fa8f8742f0000000000000000000000000000000000000000000000000000000081526004810184905273ffffffffffffffffffffffffffffffffffffffff9091169063a8f8742f90602401600060405180830381600087803b158015610a2957600080fd5b505af1158015610a3d573d6000803e3d6000fd5b50506001546040517f9dc29fac0000000000000000000000000000000000000000000000000000000081523360048201526024810186905273ffffffffffffffffffffffffffffffffffffffff9091169250639dc29fac9150604401600060405180830381600087803b158015610ab357600080fd5b505af1158015610ac7573d6000803e3d6000fd5b5050505060008381548110610ade57610ade610c5e565b600091825260208220600160039092020101805491610afc83610d66565b909155505060405183815233907fa36cc2bebb74db33e9f88110a07ef56e1b31b24b4c4f51b54b1664266e29f45b9060200160405180910390a2505050565b600060208284031215610b4d57600080fd5b5035919050565b73ffffffffffffffffffffffffffffffffffffffff81168114610b7657600080fd5b50565b600060208284031215610b8b57600080fd5b8135610b9681610b54565b9392505050565b60008060408385031215610bb057600080fd5b823591506020830135610bc281610b54565b809150509250929050565b602080825282518282018190526000919060409081850190868401855b82811015610c2f57815180518552868101518786015285015173ffffffffffffffffffffffffffffffffffffffff168585015260609093019290850190600101610bea565b5091979650505050505050565b60008060408385031215610c4f57600080fd5b50508035926020909101359150565b7f4e487b7100000000000000000000000000000000000000000000000000000000600052603260045260246000fd5b7f4e487b7100000000000000000000000000000000000000000000000000000000600052601160045260246000fd5b80820180821115610ccf57610ccf610c8d565b92915050565b8082028115828204841417610ccf57610ccf610c8d565b600082610d22577f4e487b7100000000000000000000000000000000000000000000000000000000600052601260045260246000fd5b500490565b600060208284031215610d3957600080fd5b8151610b9681610b54565b600060208284031215610d5657600080fd5b81518015158114610b9657600080fd5b60007fffffffffffffffffffffffffffffffffffffffffffffffffffffffffffffffff8203610d9757610d97610c8d565b506001019056fea26469706673582212206d91ac95835a5ffeaf4a30aff5117e156a74c47e2d57b4bf3059c1f75b09b72864736f6c63430008180033",
  "linkReferences": {},
  "deployedLinkReferences": {}
}